:020000040800F2
:100000004808002045010008791700087B17000800
:100010007F170008831700088717000800000000FA
:100020000000000000000000000000008B17000826
:100030008D170008000000008F17000891170008B6
:100040005F0100085F0100085F0100085F01000810
:100050005F0100085F0100085F0100085F01000800
:100060005F0100085F0100085F0100085F010008F0
:100070005F0100085F0100085F0100085F010008E0
:100080005F0100085F0100085F0100085F010008D0
:100090005F0100085F0100085F0100085F010008C0
:1000A0005F0100085F0100085F0100085F010008B0
:1000B0005F0100085F0100085F0100085F010008A0
:1000C0005F0100085F0100085F0100085F01000890
:1000D0005F0100085F0100085F0100089917000830
:1000E0005F0100085F0100085F0100085F01000870
:1000F0005F0100085F0100085F0100085F01000860
:100100005F0100085F0100085F0100085F0100084F
:100110005F0100085F0100085F0100085F0100083F
:100120005F0100085F0100085F0100085F0100082F
:10013000DFF80CD003F0DCFA004800472D17000868
:10014000480800200648804706480047FEE7FEE7CB
:10015000FEE7FEE7FEE7FEE7FEE7FEE7FEE7FEE777
:1001600047020008310100080CB500200190009002
:100170006C48006840F480306A49086000BF6948F4
:10018000006800F4003000900198401C0190009835
:1001900018B90198B0F5A06FF1D16248006800F479
:1001A000003010B10120009001E000200090009884
:1001B000012843D15C48006840F010005A490860AB
:1001C0000846006820F0030008600846006840F018
:1001D0000200086053484068524948600846406839
:1001E00048600846406840F48060486008464068BF
:1001F00020F47C1048600846406840F4E8104860ED
:100200000846006840F08070086000BF45480068FC
:1002100000F000700028F9D04248406820F0030048
:10022000404948600846406840F00200486000BF0E
:100230003C48406800F00C000828F9D10CBD10B50E
:10024000FFF792FF10BD10B53648006840F001007E
:1002500034490860084640683449084031494860DC
:1002600008460068324908402E4908600846006880
:1002700020F4802008600846406820F4FE004860B2
:100280004FF41F008860FFF7DAFF4FF00060294944
:10029000086010BD10B5002100200022214B5B68D2
:1002A00003F00C0121B1042906D0082928D107E068
:1002B000214B224C236027E01F4B204C236023E07E
:1002C000184B5B6803F47010164B5B6803F48032C4
:1002D000022303EB904022B9194B4343174C236090
:1002E0000DE0104B5B6803F4003323B1144B434320
:1002F000124C236003E0104B4343104C236003E097
:100300000D4B0E4C236000BF00BF064B5B68C3F370
:1003100003130C4CE15C094B1B68CB40074C23607A
:1003200010BD000000100240002002400000FFF855
:10033000FFFFF6FE08ED00E000127A00000000204A
:1003400000093D000400002031490143314A116099
:10035000704770B5002100230F22C47804B32D4CE0
:10036000246804F4E064C4F5E064210AC1F10403E4
:10037000CA40447804FA03F1847814402143090107
:10038000254C0678A155047804F01F050124AC40E3
:1003900005786D11AD0005F1E025C5F8004109E0D3
:1003A000047804F01F050124AC401C4D067876113A
:1003B00045F8264070BD1A4A0A400243154B1B1FE0
:1003C0001A60704739B1134A121D12680243114B6B
:1003D0001B1D1A6006E00F4A121D126882430D4B66
:1003E0001B1D1A607047042808D14FF0E0210969ED
:1003F00041F004014FF0E022116107E04FF0E021ED
:10040000096921F004014FF0E022116170470000FA
:100410000000FA050CED00E000E400E080E100E0FF
:1004200080FFFF1F10B50446FA48844208D101211D
:10043000401500F07FFE0021601500F07BFE17E004
:10044000F548844208D10121001500F073FE002117
:10045000201500F06FFE0BE0F048844208D1012126
:10046000C80300F067FE00214FF4004000F062FE78
:1004700010BD30B50246002000235068E84C2040F3
:100480000D790C6844EA0524204350609068E54CDF
:100490002040D1E902542C434D7944EA45042043DD
:1004A0009060D06A20F470000C7C641EE4B2234398
:1004B00040EA0350D06230BD0021016001714171FA
:1004C0008160C16001210174704721B1826842F0EE
:1004D0000102826003E0826822F0010282607047BC
:1004E00021B1826842F48072826003E0826822F463
:1004F00080728260704710B50023CBB21AB1446895
:100500001C43446002E044689C43446010BD816821
:1005100041F0080181607047014600208A6802F0BE
:1005200008020AB1012000E000207047816841F014
:10053000040181607047014600208A6802F00402CD
:100540000AB1012000E00020704721B1826842F426
:10055000A002826003E0826822F4A00282607047F9
:10056000014600208A6802F480020AB1012000E0FE
:100570000020704710B50A4600210023416821F48D
:100580006041531E41EA4331416010BD21B14268D0
:1005900042F40062426003E0426822F4006242607A
:1005A0007047F0B504460D4600200021092D11DDED
:1005B000E068A5F10A0606EB4607072606FA07F1EA
:1005C0008843A5F10A0606EB460603FA06F108433E
:1005D000E0600CE0206905EB4507072606FA07F105
:1005E000884305EB450603FA06F108432061072A14
:1005F0000FDA606B561E06EB86071F2606FA07F118
:100600008843561E06EB860605FA06F1084360632A
:1006100022E00D2A0FDA206BD61F06EB86071F2675
:1006200006FA07F18843D61F06EB860605FA06F19F
:100630000843206310E0E06AA2F10D0606EB86078E
:100640001F2606FA07F18843A2F10D0606EB86067F
:1006500005FA06F10843E062F0BD21B1826842F478
:100660008012826003E0826822F480128260704708
:100670000146C86C80B2704766484C3000687047CD
:1006800021B1426842F48062426003E0426822F491
:1006900080624260704721B1426842F480524260F9
:1006A00003E0426822F48052426070470A4600210B
:1006B000816821F4E04111438160704721B1826873
:1006C00042F40042826003E0826822F400428260C9
:1006D000704721B1826842F40212826003E08268AE
:1006E00022F4021282607047014600208A6802F4F8
:1006F00000120AB1012000E000207047F0B5044666
:100700001546002000220026092911DDE068A1F12C
:100710000A0707EB470C072707FA0CF29043A1F1F1
:100720000A0707EB470703FA07F21043E0600CE003
:10073000206901EB410C072707FA0CF2904301EB0B
:10074000410703FA07F210432061A06BC0F3015682
:10075000EF1C06F1010CA7EB0C0707EB870C1F271A
:1007600007FA0CF29043EF1C06F1010CA7EB0C0703
:1007700007EB870701FA07F21043A063F0BD10B53D
:100780000A4600210023816B21F44011531E41EAE7
:100790000351816310BD08B5002300930090009BB6
:1007A0000B440093009B1A6008BD08B50246002068
:1007B0000090009201F12800009B184400900098DE
:1007C000006880B208BD0A4600214168164B1940F6
:1007D0001143416070474162826270470A460021BE
:1007E000416821F01F0111434160704740B1094940
:1007F0000831096841F40001064A0832116007E037
:1008000004490831096821F40001024A08321160E4
:10081000704700000024014000280140003C0140D6
:10082000FFFEF0FFFDF7F1FFFFFD3FFF0246002056
:1008300013680B400BB1012000E000207047CA4351
:100840000260704770B502460020002300240B129E
:100850005568CEB205EA060415681D4015B10CB105
:10086000012000E0002070BD00220A12D343036083
:100870007047000001684FF6FE72114001600021D0
:10088000016041608160C1608D49884208D18C4916
:100890000839496841F00F01894A083A51608AE0F5
:1008A00087491431884208D185490839496841F09F
:1008B000F001834A083A51607DE08149283188423D
:1008C00008D17F490839496841F470617C4A083A87
:1008D000516070E07A493C31884208D17849083942
:1008E000496841F47041764A083A516063E07449BE
:1008F0005031884208D172490839496841F4702161
:100900006F4A083A516056E06D496431884208D117
:100910006B490839496841F47001694A083A5160E5
:1009200049E067497831884208D165490839496802
:1009300041F07061624A083A51603CE06149884286
:1009400006D1011F096841F00F01021F116032E05A
:100950005C491431884208D15A49091F096841F09D
:10096000F001584A121F116025E05649283188428B
:1009700008D15449091F096841F47061514A121F96
:10098000116018E04F493C31884208D14D49091F98
:10099000096841F470414B4A121F11600BE049494C
:1009A0005031884207D14749091F096841F4702135
:1009B000444A121F1160704710B50022026847F6C2
:1009C000F0739A430C6A8B6823430C6923434C6988
:1009D00023438C692343CC6923434C6A23438C6AA9
:1009E00023431A430260CB6843600B6883604B6803
:1009F000C36010BD0021016041608160C160016180
:100A000041618161C161016241628162704721B1CE
:100A1000026842F00102026004E002684FF6FE73D1
:100A20001A40026070471AB103680B43036002E08A
:100A300003688B4303607047416070470146486814
:100A400080B2704701460020002201F080531BB1A4
:100A50001C4B083B1A6802E0194B083B1A6802EA73
:100A600001030BB1012000E00020704700F080512D
:100A700019B11449091F086002E01149083948609A
:100A8000704701460020002201F080531BB10D4B3E
:100A9000083B1A6802E00A4B083B1A6802EA0103A5
:100AA0000BB1012000E00020704700F0805119B127
:100AB0000449091F086002E001490839486070478D
:100AC000080002400804024010B50446CC488442A5
:100AD00008D10121042000F02DFB0021042000F0AA
:100AE00029FB46E0C748844208D10121082000F0D4
:100AF00021FB0021082000F01DFB3AE0C24884429F
:100B000008D10121102000F015FB0021102000F079
:100B100011FB2EE0BD48844208D10121202000F0C5
:100B200009FB0021202000F005FB22E0B8488442A8
:100B300008D10121402000F0FDFA0021402000F002
:100B4000F9FA16E0B348844208D10121802000F070
:100B5000F1FA0021802000F0EDFA0AE0AE4884426C
:100B600007D10121801500F0E5FA0021A01500F061
:100B7000E1FA10BD10B50121084600F0DBFA0021B2
:100B8000012000F0D7FA10BD2DE9F0410246002502
:100B90000026002000230024002791F803C00CF059
:100BA0000F0591F803C00CF0100CBCF1000F03D03E
:100BB00091F802C04CEA050591F800C0BCF1000FA5
:100BC00031D0146800202BE04FF0010C0CFA00F338
:100BD000B1F800C00CEA03069E4220D183004FF01A
:100BE0000F0C0CFA03F7BC4305FA03FC4CEA0404AF
:100BF00091F803C0BCF1280F06D14FF0010C0CFA9C
:100C000000FCC2F814C00AE091F803C0BCF1480F20
:100C100005D14FF0010C0CFA00FCC2F810C0401CCA
:100C20000828D1D31460B1F800C0BCF1FF0F34DD47
:100C3000546800202EE000F1080C4FF0010808FA7B
:100C40000CF3B1F800C00CEA03069E4221D18300E8
:100C50004FF00F0C0CFA03F7BC4305FA03FC4CEA07
:100C6000040491F803C0BCF1280F05D100F1080C71
:100C700008FA0CF8C2F8148091F803C0BCF1480FD0
:100C800007D100F1080C4FF0010808FA0CF8C2F87F
:100C90001080401C0828CED35460BDE8F0814FF688
:100CA000FF710180022181700421C17070470246EA
:100CB000002093680B400BB1012000E0002070473A
:100CC0000146886880B2704702460020D3680B4016
:100CD0000BB1012000E0002070470146C86880B2D7
:100CE000704701617047416170470AB1016100E0DE
:100CF00041617047C16070474FF480320A4382619E
:100D00008161826182698269704702460020434B9B
:100D100018684FF68073184040EA021008433F4BB2
:100D2000186070473E49C8617047F0B50A46002315
:100D300000240021002500F00046B6F1004F02D14A
:100D4000364EF16901E0354E7168C0F3034583B258
:100D500000F44016B6F5401F08D121F070612F4E07
:100D6000766826F070662D4F7E6012E000F48016E3
:100D7000B6F5801F06D1032606FA05F4A14341F01B
:100D8000706106E0460D360103FA06F6B14341F004
:100D9000706122B1460D360103FA06F6314300F0C8
:100DA0000046B6F1004F02D11C4EF16101E01B4E2E
:100DB0007160F0BD30B500228B071C0F0F2303FAC2
:100DC00004F2164B08338C1053F824309343134C21
:100DD00008348D1044F8253023468C1053F8243005
:100DE0008C07240F00FA04F423430C4C08348D10B4
:100DF00044F8253030BD0A49DC31086070470000F6
:100E000000080140000C01400010014000140140A6
:100E100000180140001C014000200140000001407A
:100E200000002042DF48006840F00100DD49086012
:100E300008464068DC490840DA49486008460068CE
:100E4000DA490840D74908600846006820F4802045
:100E500008600846406820F4FE0048604FF41F0018
:100E600088607047CF49096821F48031CD4A11600C
:100E70001146096821F480211160B0F5803F03D04C
:100E8000B0F5802F0ED106E0C649096841F48031E3
:100E9000C44A116007E0C349096841F4A021C14A6E
:100EA000116000E000BF00BF704710B5014600228E
:100EB000002300204A11012A02D1BA4C236806E01F
:100EC000022A02D1B74C236A01E0B64C636A01F0F2
:100ED0001F02012494401C400CB1012000E00020BE
:100EE00010BD38B5002000900024002500BF31203F
:100EF000FFF7DBFF05460098401C00900098B0F516
:100F0000A06F01D0002DF2D03120FFF7CEFF08B145
:100F1000012400E00024204638BD01460020A14AFB
:100F2000106820F0F80040EAC10010607047A04946
:100F300008607047024600209A4B586820F47C10E5
:100F400042EA01031843974B586070479849086676
:100F5000704701460020934A506820F00300084380
:100F6000506070478F48406800F00C0070470146A1
:100F700000208C4A506820F0F00008435060704711
:100F800001460020874A506820F4E0600843506022
:100F9000704701460020834A506820F4605040EAC0
:100FA000C1005060704729B17E4A527A02437D4B9E
:100FB0005A7204E07B4A527A82437A4B5A727047E3
:100FC0007B49D8310860704701460020754A506857
:100FD00020F440400843506070470021714A20329D
:100FE0001170704A82F82010012802D004280AD11A
:100FF00004E001216B4A2032117005E00521694AA5
:101000002032117000E000BF00BF704769490860DE
:1010100070476449096A0143624A11627047654931
:1010200044390860704730B50021002200240023B5
:101030005C4D6D6805F00C0121B1042905D008292B
:1010400023D105E05C4D056022E05B4D05601FE0AB
:10105000544D6D6805F47012524D6D6805F480347E
:10106000022505EB92421CB9544D554305600BE037
:101070004C4D6D6805F400351DB1504D554305606C
:1010800002E04D4D5543056002E04B4D056000BF49
:1010900000BF444D6D6805F0F0010909484D6B5CD7
:1010A0000568DD4045603F4D6D6805F4E061090A63
:1010B000434D6B5C4568DD4085603A4D6D6805F4D5
:1010C0006051C90A3E4D6B5C4568DD40C560354DD9
:1010D0006D6805F44041890B3A4D6B5CC568B5FB02
:1010E000F3F5056130BD29B12E4A526902432D4BFB
:1010F0005A6104E02B4A526982432A4B5A61704775
:1011000029B1284A92690243264B9A6104E0254A94
:1011100092698243234B9A61704729B1214AD2696F
:101120000243204BDA6104E01E4AD26982431D4B20
:10113000DA61704729B11B4AD2680243194BDA6061
:1011400004E0184AD2688243164BDA60704729B12E
:10115000144A12690243134B1A6104E0114A1269DE
:101160008243104B1A61704712494039086070473A
:101170000F49C86470470B49C87170470948406AF5
:1011800040F0807007494862704701460020054AD8
:1011900092680A400AB1012000E00020704701492E
:1011A00088727047001002400000FFF8FFFFF6FE53
:1011B000000042428004424200127A0000093D00D1
:1011C000140000202400002010B50446FB4884428F
:1011D00009D101218803FFF7ADFF00214FF48040C2
:1011E000FFF7A8FF32E0F648844209D10121480404
:1011F000FFF7ADFF00214FF40030FFF7A8FF25E017
:10120000F048844209D101218804FFF7A0FF0021A2
:101210004FF48020FFF79BFF18E0EB48844209D190
:101220000121C804FFF793FF00214FF40020FFF7CE
:101230008EFF0BE0E548844208D101210805FFF745
:1012400086FF00214FF48010FFF781FF10BD2DE9CC
:10125000F04786B005460E460024A24600BFA146D0
:101260000027B08900B100BF2F462C8A4CF6FF70D2
:101270000440F08804432C82AC894EF6F3100440FD
:10128000B08831890843718908430443AC81AC8A32
:101290004FF6FF400440B0890443AC8201A8FFF739
:1012A000C2FEC648874202D1DDF810A001E0DDF899
:1012B0000CA0A88900F4004040B10AEBCA0000EB82
:1012C0000A1031684900B0FBF1F807E00AEBCA00E8
:1012D00000EB0A1031688900B0FBF1F86420B8FB1C
:1012E000F0F004012009642101FB1089A88900F4B1
:1012F000004040B1322000EBC900B0FBF1F000F03B
:101300000700044308E0322000EB09106421B0FB21
:10131000F1F000F00F0004432C8106B0BDE8F08727
:101320004FF41651016000218180C18001810C21A0
:10133000418100218181704710B502460020108A4A
:101340004FF2FF0318400B884C8823438C882343BB
:10135000CC8823431843108210BD002101804180B6
:101360008180C180704721B1828942F4005282811C
:1013700004E082894DF6FF731A4082817047F0B510
:101380000346002400260025002040F66A17B942D3
:1013900000D100BF1846C1F3421401F01F06012717
:1013A00007FA06F5012C01D10C3004E0022C01D122
:1013B000103000E014301AB107682F43076002E0D4
:1013C0000768AF430760F0BD1AB1838A0B4383827D
:1013D00002E0838A8B4383827047028A4FF6F07360
:1013E0001A400282028A0A430282704782894FF2BF
:1013F000FF731A40828182890A438281704721B13A
:10140000828942F00202828104E082894FF6FD73F4
:101410001A4082817047028A4FF6DF731A400282B7
:10142000028A0A430282704721B1028A42F4804252
:10143000028204E0028A4BF6FF731A400282704770
:10144000C1F308028280704701468888C0F3080013
:101450007047818941F0010181817047028BD2B2CE
:101460000283028B42EA012202837047028B02F45C
:101470007F420283028B0A430283704721B1828A32
:1014800042F02002828204E0828A4FF6DF731A4023
:101490008282704721B1828A42F01002828204E087
:1014A000828A4FF6EF731A408282704721B1828A96
:1014B00042F00802828204E0828A4FF6F7731A40F3
:1014C0008282704721B1828942F40042828103E026
:1014D0008289C2F30E028281704721B1828A42F46E
:1014E0000062828204E0828A4FF2FF731A40828295
:1014F0007047828A4FF6FB731A408282828A0A43BF
:101500008282704721B1828A42F00202828204E024
:10151000828A4FF6FD731A4082827047024600208D
:10152000B1F5007F00D100BF13880B400BB1012043
:1015300000E00020704701F40072B2F5007F00D196
:1015400000BFCA430280704770B5024600240023E2
:101550000025002040F66A16B14200D100BFC1F359
:10156000421501F01F03012606FA03F3012D02D1F3
:101570009689334006E0022D02D1168A334001E0FD
:10158000968A33400C12012606FA04F41688344079
:1015900013B10CB1012000E0002070BD10B5002295
:1015A000002340F66A14A14200D100BF0A120124B0
:1015B0009440A3B2DC43048010BD00000038014019
:1015C0000044004000480040004C004000500040F3
:1015D00008B501214FF40170FFF792FD1020ADF81E
:1015E00000002020ADF800004020ADF80000802071
:1015F000ADF8000000208DF8030069464748FFF76A
:10160000C3FA08BD00B591B001210846FFF76BFD94
:101610004348FFF72FF943480690434807900020BE
:1016200008900420099000200A9080200B90400030
:101630000C9080000D9020200E9000020F90002052
:10164000109006A93648FFF7B7F901213448FFF793
:10165000DEF934484C38FEF7E5FE00200190012009
:101660008DF808008DF809004FF4602003900020E9
:10167000049004208DF8140001A92A484C38FEF784
:10168000F8FE4FF40040FFF79FFC072301220421DE
:1016900024484C38FEF785FF072302220521214804
:1016A0004C38FEF77EFF0723032206211D484C38E5
:1016B000FEF777FF0723042219461A484C38FEF735
:1016C00070FF012117484C38FEF70AFF0121154829
:1016D0004C38FEF7FAFE13484C38FEF718FF00BFEF
:1016E00010484C38FEF718FF0028F9D10D484C3847
:1016F000FEF71CFF00BF0B484C38FEF71CFF00280C
:10170000F9D1012107484C38FEF71FFF11B000BD89
:1017100010B5FFF75DFFFFF775FF10BD0008014032
:10172000080002404C2401402800002000F084F80A
:1017300000F0F0F800F0C6F901F01BFBFFF7E8FF3E
:1017400003A001F0E7FF00F0EBFD00BFFEE70000A3
:101750000D0AD2B0BBF02057462D455350383236D3
:10176000362057694669C4A3BFE9B2E2CAD4C0FDB6
:10177000B3CC0D0A00000000704700BFFEE700BFB9
:10178000FEE700BFFEE700BFFEE770477047704707
:1017900010B500F006F910BD10B540F225512048F3
:1017A000FFF7D2FED8B11E48FFF74EFEC4B21D4867
:1017B000B0F80004C0F30E0040F2FF3188420EDAA8
:1017C0001849B1F80014C1F30E00411C154AB2F8D3
:1017D000002461F30E021349A1F800240C5440F2D6
:1017E00024410F48FFF7B0FE012817D10D48B0F88B
:1017F000000420F4004000F500400A49A1F800046C
:101800000748FFF721FEC4B207A1064801F038FBE4
:1018100008B1012000E000200649087010BD00005A
:101820000048004040000020434C4F5345440D0AFF
:10183000000000003400002000B585B001218803BD
:10184000FFF75EFC01210420FFF75AFC4FF4007003
:10185000ADF8100018208DF8130003208DF8120049
:1018600004A92A48FFF790F94FF48060ADF8100002
:1018700004208DF8130004A92448FFF785F90121FD
:101880000420FFF73DFC0120ADF8100010208DF87A
:10189000130003208DF8120004A91C48FFF774F907
:1018A0004FF4E13000900020ADF80400ADF80600E0
:1018B000ADF80800ADF80C000C20ADF80A00694640
:1018C0001348FFF7C4FC01211148FFF74CFD05B098
:1018D00000BD70B504460D46E1B20D48FFF7B0FDFE
:1018E00000BF80210A48FFF719FE0028F9D02046E2
:1018F00070BD10B5044600BF20210548FFF70EFE5D
:101900000028F9D00248FFF79FFD10BD00080140F4
:101910000038014030B527480068274AB0FBF2F193
:10192000B1F1807F01D301201DE021F07F40401EF6
:101930004FF0E022506150170F22002807DA1307FA
:101940001D0E1E4B00F00F04241F1D5503E013074E
:101950001C0E1B4B1C5400BF00204FF0E022906176
:1019600007201061002008B100BFFEE74FF0E02023
:10197000006920F001004FF0E021086130BD01B5A1
:101980001049009808604FF0E020006940F0010025
:101990004FF0E021086100BF0A4800680028FBD131
:1019A00008BD0848006820B106480068401E054987
:1019B000086070470000002040420F0018ED00E072
:1019C00000E400E03000002008B54FF4A060FEF70E
:1019D000BBFC27208DF8000000208DF801008DF859
:1019E000020001208DF803006846FEF7B2FC08BD36
:1019F00000B585B001218804FFF78FFB0121082085
:101A0000FFF77EFB4FF48060ADF8100018208DF8D2
:101A1000130003208DF8120004A9FA48FFF7B4F868
:101A20004FF40060ADF8100004208DF8130004A9F5
:101A3000F448FFF7A9F84FF4E13000900020ADF82A
:101A40000400ADF80600ADF80800ADF80C000C205D
:101A5000ADF80A006946EC48FFF7F9FB012240F2B5
:101A60002551E948FFF78BFC012240F22441E6486A
:101A7000FFF785FCFFF7A8FF0121E348FFF773FCA0
:101A800005B000BD08B501210802FFF739FB4FF48E
:101A90000050ADF8000010208DF8030003208DF8F1
:101AA00002006946D948FFF76FF801210802FFF7E5
:101AB00027FB4FF48040ADF800006946D348FFF79C
:101AC00063F808BD10B5FFF7DDFFFFF791FF4FF496
:101AD0008041CE48FFF705F94FF40051CB48FFF79E
:101AE00002F910BD2DE9F04106460C4615461F4689
:101AF000C748B0F800046FF30E00C549A1F8000410
:101B00003246C4A1C04800F088FB1CB915B90120B9
:101B1000BDE8F0814FF47A7107FB01F0FFF72FFF6A
:101B20000020BB49B1F80014C1F30E01B84A50546B
:101B30001146BAA001F0EEFDB4B1ADB12146B448F2
:101B400001F09EF908B1012000E0002040B92946CB
:101B5000AF4801F095F908B1012000E0002008B17C
:101B60000120D5E70020D3E744B12146A84801F081
:101B700087F908B10120CBE70020C9E72946A4482E
:101B800001F07EF908B10120C2E70020C0E710B5DE
:101B900040F6C413A2A2A4A1A4A0FFF7A3FF4FF490
:101BA00080419A48FFF79FF8A248FFF7E8FE4FF4FC
:101BB00080419648FFF795F810BD10B500244FF40A
:101BC00080419248FFF78DF89B48FFF7D8FE0CE064
:101BD0004FF4FA73002294A198A0FFF783FF00B19D
:101BE00010BDFFF7D4FF601CC4B20A2CF0DB00BFAD
:101BF000F6E710B5044624B1012C0AD0022C18D106
:101C00000FE040F6C4138EA287A190A0FFF76AFFF1
:101C100010BD40F6C4138AA283A18FA0FFF762FF14
:101C2000F6E740F6C41386A27FA18EA0FFF75AFF05
:101C3000EEE70020ECE730B59FB004460D462B469A
:101C400022468BA101A801F075FD41F288330022E4
:101C500075A101A8FFF746FF1FB030BD70B5A0B059
:101C600004460D4616462B46224686A102A800963B
:101C700001F060FD4FF47A7300226BA102A8FFF718
:101C800031FF20B070BD10B586B004460CB1012004
:101C900000E00020024681A101A801F04BFD4FF4B5
:101CA000FA73002260A101A8FFF71CFF06B010BD67
:101CB000F0B5B9B006460F4614461D46642120A86B
:101CC00001F0C7F816B1012E10D107E03B4677A20C
:101CD00077A120A8009401F02DFD08E03B4678A2F2
:101CE00073A120A8009401F025FD00E000BF00BF13
:101CF000052D06DA20AB2A4672A102A801F01AFDD2
:101D000004E020AA74A102A801F014FD4FF47A6344
:101D100075A245A102A8FFF7E5FE39B0F0BD70B588
:101D2000BCB004460D461646FCB12B46012272A1FA
:101D30001EA801F0FFFC324674A1684601F0FAFCCF
:101D40004FF4FA73002238A11EA8FFF7CBFE50B162
:101D50004FF4FA73002234A16846FFF7C3FE10B1B6
:101D600001203CB070BD0020FBE72B46002262A1A1
:101D70001EA801F0DFFC4FF4FA7300222AA11EA86E
:101D8000FFF7B0FEEDE710B54FF4FA73002226A17D
:101D900062A0FFF7A7FEA0B164A11D4801F070F892
:101DA00008B1022010BD64A1194801F069F808B11A
:101DB0000320F7E763A1164801F062F808B1042098
:101DC000F0E70020EEE710B500244FF4FA7300228C
:101DD00015A152A0FFF786FE002812D05CA10C4886
:101DE00001F04EF810B144F0010401E024F00104C8
:101DF0005BA1074801F044F810B144F00204B9E0D7
:101E0000B6E0D5E0000C0140004800400020014051
:101E10004000002025730D0A00000000257300001B
:101E200072656164790000004F4B000041542B52F1
:101E30005354000020A1070040420F00415400000D
:101E40006E6F206368616E676500000041542B432C
:101E5000574D4F44453D310041542B43574D4F445E
:101E6000453D320041542B43574D4F44453D3300CF
:101E700041542B43574A41503D222573222C2225A1
:101E80007322000041542B43575341503D22257388
:101E9000222C222573222C312C25640041542B4303
:101EA00049504D55583D25640000000054435000F2
:101EB000222573222C222573222C2573000000007A
:101EC0005544500041542B43495053544152543DC2
:101ED00025642C257300000041542B434950535472
:101EE0004152543D25730000414C52454159204315
:101EF0004F4E4E454354000041542B4349505345E7
:101F0000525645523D25642C2573000041542B4305
:101F1000495053544F3D25730000000041542B435A
:101F200049505354415455530000000053544154F8
:101F300055533A320D0A00005354415455533A3325
:101F40000D0A00005354415455533A340D0A000011
:101F50002B4349505354415455533A302C00000000
:101F60002B4349505354415455533A312C000000EF
:101F700024F0020464A1684800F082FF10B144F02C
:101F8000040401E024F0040464A1634800F078FF35
:101F900010B144F0080401E024F0080463A15E4895
:101FA00000F06EFF10B144F0100401E024F01004C2
:101FB000204610BD2DE9F04105460F464FF4FA7357
:101FC0000022AFF29C115DA0FFF78CFD5EA152488C
:101FD00000F056FF06460EB1B61D02E00020BDE837
:101FE000F081002409E0305D2855285D222802D1C7
:101FF0000020285503E0601CC4B2BC42F3DB00BFE4
:102000000120ECE710B54FF4FA730022AFF2E811AB
:102010004FA0FFF767FD08B9002010BD4FF4FA7319
:102020004FA2AFF2FC114FA0FFF75CFDF5E710B532
:102030004F48FFF7A4FC4FA14F4800F0EEF84F487F
:10204000FFF79DFC10BD2DE9F04186B007460C4618
:1020500015461E464FF0000847B12246AFF2442114
:10206000454800F0DAF84FF001081CE0052E06DACA
:10207000AB1C324642A101A801F05CFB04E0AA1CA3
:1020800044A101A801F056FB4FF47A73002245A148
:1020900001A8FFF727FD4FF47A73002242A12046E2
:1020A000FFF720FD8046404606B0BDE8F08170B5E0
:1020B000044600251848B0F800046FF30E001649D6
:1020C000A1F800040846B0F8000420F40040A1F88C
:1020D000000400BF1048B0F80004C00B0028F9D07D
:1020E00000200D49B1F80014C1F30E010A4A505402
:1020F0000CB1154605E02EA1074800F0C1FE00B165
:10210000054D284670BD00002B434950535441549F
:1021100055533A322C000000400000202B43495018
:102120005354415455533A332C0000002B4349502B
:102130005354415455533A342C00000041542B431E
:102140004946535200000000415049502C220000E3
:1021500041542B4349504D4F44453D310000000050
:102160003E00000041542B43495053454E4400006B
:1021700040420F002B2B2B000048004020A10700FD
:1021800041542B43495053454E443D25642C25640E
:102190000000000041542B43495053454E443D2517
:1021A000640000003E20000053454E44204F4B0089
:1021B0002B49504400000000F0B503460D4616467A
:1021C000002729460A2E03D0002008702846F0BDBB
:1021D00033B9302001F8010B002008702846F6E7DB
:1021E000002B03DA2D2001F8010B5B4242F2107242
:1021F0000DE093FBF2F404B937B104F1300001F8BB
:10220000010B04FB123301270A2092FBF0F2002A93
:10221000EFDC002008702846D9E70FB470B586B00F
:1022200006460CA8019073E00B9800785C281CD13E
:102230000B98401C0B9000786E2809D072280FD1A3
:102240000D213046FFF7FCF80B98401C0B900BE07B
:102250000A213046FFF7F4F80B98401C0B9003E07E
:102260000B98401C0B9000BF4BE00B980078252882
:1022700040D10B98401C0B900078642818D073282C
:1022800033D1019810C801900BE021783046FFF758
:10229000D7F800BF80213046FFF740F90028F9D079
:1022A000641C20780028F0D10B98401C0B9020E093
:1022B000019820C801900A2202A92846FFF77CFF56
:1022C00002AC0BE021783046FFF7BAF800BF80215E
:1022D0003046FFF723F90028F9D0641C2078002845
:1022E000F0D10B98401C0B9003E00B98401C0B9016
:1022F00000BF06E00B9810F8011B0B903046FFF76B
:102300009FF800BF80213046FFF708F90028F9D078
:102310000B980078002887D106B070BC5DF814FBDC
:10232000D0B000BF00204B9030902F902E90269080
:102330004FF07E5025902490FC482390FC4822903A
:102340000020219020901F9000BF1D904FF07E50E4
:102350001C90F8481A90F8A001F0DCF94FF40051F5
:10236000FC48FEF7BEFCFFF728FC0020FFF741FC0D
:1023700000BFF9A1FCA0FFF75EFC0028F9D0002007
:10238000FFF781FC00BF0523FAA2FCA10020FFF7A4
:102390008FFC0028F7D000BFFFF734FE0028FBD0E9
:1023A000FAA001F0B7F905230022FEA10120FFF7F2
:1023B0004AFEFE48FFF7E3FABBE300F0E4FC1890A6
:1023C00000F0C0FFFA49199000F0F6FD2C902C980F
:1023D00000F0F6FF02460B46CDE91801F5A13BA837
:1023E00001F0A8F92C9800F0EBFF02460B46CDE96E
:1023F0001801F2A001F08EF9F5480088139000F062
:10240000AAFFF449149000F0D7FD159000F0D8FF12
:102410004FF06632F04BCDE9160100F0B2FECDE987
:10242000180101F011F8289041F28830FFF7A7FA5F
:10243000E7484088139000F08EFFE649149000F0C2
:10244000BBFD159000F0BCFF4FF06632E24BCDE9CA
:10245000160100F096FECDE9180100F0F5FF299075
:1024600041F28830FFF78BFAD9488088139000F04A
:1024700072FFD849149000F09FFD159000F0A0FF66
:102480004FF06632D44BCDE9160100F07AFECDE96B
:10249000180100F0D9FF2A9041F28830FFF76FFA57
:1024A000CB48C088139000F056FFCA49149000F042
:1024B00083FD159000F084FF4FF06632C64BCDE9E6
:1024C000160100F05EFECDE9180100F0BDFF2B9073
:1024D00029982D902D9800F073FF02460B46CDE908
:1024E0001801BEA001F016F92D9800F069FFC04A4E
:1024F000C04BCDE9140100F044FEBF4ABF4BCDE90B
:10250000160100F097FDCDE9180100F09DFF2D9018
:102510002D9800F055FF02460B46CDE91801A5A104
:1025200037A801F007F92D9800F04AFF02460B4644
:10253000CDE91801B2A001F0EDF82C983090289860
:102540004C904C982F904C9800F03AFF02460B4666
:10255000CDE91801ADA001F0DDF8B149309800F0E7
:10256000F3FC0F9000F02CFFAE4AAF4BCDE9100109
:1025700000F007FECDE914012F9800F021FFCDE90E
:102580001201DDE9142300F055FDA84AA84BCDE95E
:10259000160100F0F6FDCDE9180100F055FF2E9070
:1025A0004C9800F00DFFCDE916019D49309800F0E0
:1025B000CBFC119000F004FF9A4A9E4BCDE912012A
:1025C00000F0DFFDCDE91401DDE9162300F032FD56
:1025D000CDE9180100F038FF4B90309800F0F0FE84
:1025E00002460B46CDE9180193A001F093F84B98F1
:1025F00000F0E6FE8D4A934BCDE9140100F0C1FDD9
:10260000914A924BCDE9160100F014FDCDE9180175
:1026100000F01AFF4D904D9800F0D2FE02460B4696
:10262000CDE918018AA001F075F800214D9800F05D
:1026300027FF10D200F0F4FB159000F091FE874ABE
:10264000874BCDE9160100F00EFECDE9180100F030
:10265000FBFE4D9006E083494D9800F01BFF01D82A
:1026600081484D902E9800F0ABFE02460B46CDE916
:1026700018017EA001F04EF84D9800F0A1FE024630
:102680000B46CDE918017EA001F044F82A9875495F
:10269000199000F05FFC27907248279900F05AFCCF
:1026A000139000F08DFE00227A4BCDE9140100F06A
:1026B000DAFD0022784BCDE9160100F0D4FDCDE91A
:1026C000180100F0C1FE21902499219800F042FCED
:1026D0002090209800F074FE00224FF08043CDE956
:1026E000180100F099FE02D2229824900CE0209864
:1026F00000F066FE00224FF08043CDE9180100F0A3
:1027000073FE01D8239824902499219800F022FC8C
:1027100026902C9800F054FE0022604BCDE9120167
:1027200000F029FD5E4A5F4BBEE0000069C6A23F93
:1027300049D79C3F48E17A3F0D0AD5FDD4DAC5E47C
:10274000D6C32045535038323636202E2E2E2E2E0C
:102750002E0D0A00002001406E6973756979696A5F
:10276000697568616F0000005265646D69204B34C3
:102770003000000034303031000000003139322E9A
:102780003136382E3230392E373200000D0AC5E48A
:10279000D6C3204553503832363620CDEAB1CF0D5E
:1027A0000A000000646576696365310040420F00ED
:1027B0000000204125302E3266000000746D7065E7
:1027C0007456616C75653A2025660D09000000009D
:1027D0002800002000F07F4566660A4050482076B9
:1027E0006F6C746167653A20256620200000000048
:1027F00087A757CA320417C08195438B6CA7304016
:1028000050482076616C3A20256609006164632097
:10281000766F6C746167653A2025660D2020000094
:102820000000C841613255302AA9933F3D0AD7A321
:10283000700D8B402AA993BF545F746573743A2559
:10284000660A0000700D8BC085EB51B81E9BA64038
:102850007A687564753A2025660D20000000E0FF57
:10286000FFFFDF4100007A44D72375446A69616F36
:102870007A68656E67204B3A2025660D20000000BF
:102880006A69616F7A207A687564753A2025660DE9
:102890000A00000000A089400000694000003940A3
:1028A0008B6CE7FBA9F1923FCDE9140100F069FCC4
:1028B0000022A04BCDE9160100F0BCFBCDE91801C8
:1028C00000F0C2FD2590DDE9251000F075FB269093
:1028D0000021269800F0D4FD01D8002026909649CA
:1028E000269800F0D7FD01D2934826909349269868
:1028F00000F030FB1F901F9800F062FD02460B466F
:10290000CDE918018EA131A800F014FF2B981E907C
:102910002C9800F055FD00228B4BCDE9120100F000
:102920002AFC8A4A8A4BCDE9140100F02AFC0022D5
:10293000804BCDE9160100F07DFBCDE9180100F0D8
:1029400083FD1C901C991E9800F036FB1B901A9872
:1029500000F036FDCDE916011B9800F031FD7B4AF1
:1029600052427C4BCDE90C0100F00BFCCDE910018B
:102970001B9800F025FDCDE908011B9800F020FD13
:10298000754A764BCDE9040100F0FBFBCDE9060169
:10299000DDE9082300F0F5FBCDE90C011B9800F000
:1029A0000FFDCDE908011B9800F00AFDCDE90401F7
:1029B0001B9800F005FD6A4A6A4BCDE9000100F062
:1029C000E0FBCDE90201DDE9042300F0DAFBCDE90B
:1029D0000601DDE9082300F0D4FBCDE90A01DDE9B9
:1029E0000C2300F0C8FBCDE90E01DDE9102300F057
:1029F00021FB00225C4BCDE9120100F0C2FBCDE9C6
:102A00001401DDE9162300F0BCFBCDE9180100F04C
:102A10001BFD1D9000211D9800F032FD01D8002003
:102A20001D9052491D9800F035FD01D24F481D9070
:102A30001D9800F0C5FC02460B46CDE9180140A1E7
:102A400034A800F077FE1D9800F0BAFCCDE918011B
:102A5000269800F0B5FCCDE91601DDE91801CDE9B5
:102A6000000143A0DDE9162300F054FE4D9800F06C
:102A7000A7FC02460B46CDE9180131A13FA800F0A2
:102A800059FE44A13FA800F0EFF93BA93FA800F090
:102A9000EBF940A13FA800F0E7F937A93FA800F003
:102AA000E3F93CA13FA800F0DFF934A93FA800F00A
:102AB000DBF938A13FA800F0D7F931A93FA800F011
:102AC000D3F9052300223FA90120FFF7BCFA3248C1
:102AD000FEF755FF3148007800282AD0FFF7A7FA03
:102AE00000BFFFF750F94E904E980028F9D04E984D
:102AF000042819D12AA000F00DFE00BFAFF2A831C2
:102B0000AFF29C30FFF797F80028F7D000BF0523FD
:102B1000AFF2A032AFF29C310020FFF7C9F80028D5
:102B2000F5D027A000F0F6FD00BFFFF76BFA0028F4
:102B3000FBD042E40000F03F0000A04100007A44D6
:102B40002025302E32660000000039407B14AE474D
:102B5000E17A943F1ECB8A40EC51B81E85FB6F4052
:102B60003D0AD7A370AD60400000E03F0000AF44D5
:102B700045435F76616C75653A202566096D732F54
:102B8000636D2C205444535F76616C75652C25660B
:102B9000090000003A00000040420F00340000200D
:102BA0000D0AD5FDD4DAD6D8C1ACC8C8B5E3BACDC4
:102BB000B7FECEF1C6F7202E2E2E2E2E2E0D0A0099
:102BC0000D0AD6D8C1ACC8C8B5E3BACDB7FECEF1B0
:102BD000C6F7B3C9B9A60D0A0000000010B58C48AD
:102BE000006820F00F008A4908600846006840F03D
:102BF0000300086000208749086040F2EE20FEF7DD
:102C0000BEFE01208449C1F880010F20FEF7B7FE07
:102C100010BD10B500247E48006820F00F007C49EC
:102C200008600846006840F00800086004E0601C86
:102C3000C4B20120FEF7A3FE76488038006808B1D0
:102C4000C82CF4DBC82C01DB012010BD002404E0FB
:102C5000601CC4B20120FEF792FE6E488038006806
:102C600008B9F02CF4DBF02C01DB0120EDE70020AB
:102C7000EBE710B56648006820F00F006449086073
:102C80000846006840F003000860002061490860C1
:102C90000220FEF774FE01205F49C1F880015C4804
:102CA000006820F00F005A4908600846006840F0AC
:102CB000080008600C20FEF762FE56488038006865
:102CC00008B1012400E000243220FEF758FE20461F
:102CD00010BD70B50026012508E0FFF7CAFF0446C5
:102CE000E00140EA6600C6B2681CC5B2082DF4DDFA
:102CF000304670BD70B504464548006820F00F00AE
:102D0000434908600846006840F003000860012558
:102D100020E004F0010664106EB100203D49086017
:102D20000220FEF72CFE01203B49C1F880013C2027
:102D3000FEF725FE0CE00020364908603C20FEF737
:102D40001EFE01203449C1F880010220FEF717FE63
:102D5000681CC5B2082DDCDD70BD10B5FFF73EFF65
:102D6000FFF757FFCC20FFF7C5FF4420FFF7C2FF56
:102D700010BD10B501212648FDF7B3FFFFF72EFF68
:102D8000FFF747FF10BD2DE9F84FFFF7E6FFFFF70C
:102D900025FFFFF73EFFCC20FFF7ACFFBE20FFF77B
:102DA000A9FFFFF796FF8346FFF793FF0446072C22
:102DB00008DDE043C4B26FEA0B0000F0FF0B4FF0F8
:102DC000000A01E04FF0010AA1464FEA09200FFA7C
:102DD00080F909EB0B000FFA80F9484600F0B2FACF
:102DE000009000F0EDFA074600220C4B00F0C9F904
:102DF000054600F0C6FA0FFA80F9BAF1000F02D0CA
:102E00004846BDE8F88FC9F1000000B2F9E70000BC
:102E10000008014080012142000021420000E43FFF
:102E20000649074A0868504343F2390210440860D3
:102E300040087047014908607047000038000020D2
:102E40006D4EC641D2B201E000F8012B491EFBD203
:102E500070470022F6E710B513460A4604461946A5
:102E6000FFF7F0FF204610BD421E12F8013F002B75
:102E7000FBD111F8013B02F8013B002BF9D170475F
:102E800030B505462A460B4612F8010B13F8014BE4
:102E900008B1A042F8D01CB1002802D06D1CF1E7A7
:102EA000284630BDF0B480EA0102D40F4200B2EBF4
:102EB000410F02D20246084611464A0042D0C30DD5
:102EC000DDB2C1F3C752AD1A202D35DAC1F31601B8
:102ED00041F4000204B15242C5F1200602FA06F1A3
:102EE0002A411044B3EBD05F23D0C4B1012DA0EB35
:102EF000C35009DCF0BC4FF0004202EAC352DBB21F
:102F000000F5000000F051BB400000F1807000EBC4
:102F1000C350A0F1807040EAD170490009E049082F
:102F200041EAC071A0EBC35000F50000400800EB7F
:102F3000C350F0BC00F030BB6142012202EB410102
:102F4000001BF6E7F0BC704781F00041AAE780F073
:102F50000040A7E780EA010210B502F000434000FC
:102F600022D04A001FD0010E01EB1261C0F35600BF
:102F7000C2F3560240F4000042F40002A0FB02201B
:102F800000047F39140400D0401C50EA124001D4E0
:102F90004000491EC2B20C0604EBD010401C400891
:102FA000802A02D003E0002010BD20F0010000299B
:102FB00000DA0020184310BD30B480EA010202F0AC
:102FC000004530F0004221F0004013D090B1C30D15
:102FD000D40DC2F31601C0F31600E41A41F4000147
:102FE00040F400027D34914201D3641C00E04900AA
:102FF000002C02DA30BC002070474FF400000023A0
:10300000914201D3891A034340084FEA4101F7D1A5
:1030100051B1914202D14FF0004105E002D24FF090
:10302000010101E06FF0010103EBC450284430BC02
:1030300000F0B2BA2DE9FE4F804681EA0300C00FCE
:103040000C46009021F0004123F00045B8EB02004F
:10305000A94105D24046214690461C460B460246F1
:1030600023F00040104347D0270DC7F30A00C3F3F5
:103070000A510290401A019040286BDAC3F3130002
:1030800040F4801B0098924620B10023D2EB030A43
:1030900063EB0B0B01985946C0F14002504600F01B
:1030A0004AFA06460D4650465946019A00F062FA21
:1030B00010EB08006141002487EA115284EAE773AB
:1030C0001A4340D0009A62B3019A012A4FEA07528C
:1030D00015DC001B61EB02014FF0004202EA0752CF
:1030E000CDE90042001C41F5801132462B4600F02C
:1030F00099FA03B0BDE8F08F40462146F9E7001B7E
:1031000061EB0201001C41F5801300185B4120189F
:10311000A2F5001747EB030140EAD570B6196D41DF
:1031200011E06D084FEA360645EAC0754FEA0752CE
:10313000001B61EB0201001C41F5801149084FEAB8
:1031400030000019514132462B4603B0BDE8F04F24
:1031500000F059BA0098012240000023D0EB02028F
:1031600063EBE073009821464FEAE074B8EB00008F
:1031700061EB0401E9E783F000435BE781F0004184
:1031800058E72DE9FE4F81EA030404F0004421F0E2
:10319000004100944FF0000B23F0004350EA01047B
:1031A0005ED052EA03045BD0C3F30A54C1F30A555C
:1031B0002C44A4F2F3340194A0FB0254C1F3130194
:1031C00041F48011C3F3130343F4801301FB024461
:1031D00000FB034E840A970A44EA815447EA835766
:1031E000A4FB076802958D0A05FB07854FEA932C1F
:1031F00004FB0C542705029D4FEA065847EA163790
:10320000B5EB08056EEB070C870E920E47EA8117A7
:1032100042EA8312A7FB0201B6EB0B0164EB000448
:103220002B0D43EA0C335E1844EB1C50DA46514632
:10323000E7FB0201C5F313044FEA0B3343EA1453CF
:103240004FEA0432019C43EA0603A4F10C04029401
:10325000009CCDE900B400F0E5F903B0BDE8F08FC3
:1032600000200146F9E72DE9F04D81EA030404F05E
:10327000004B21F0004514464FF0000A23F00041B6
:1032800050EA050220D054EA01021DD0C5F30A57C6
:103290000246C5F31303C1F31300C1F30A5640F409
:1032A000801543F48013A7EB0608101BD64608F2DE
:1032B000FD3873EB050002D308F1010801E0921814
:1032C0005B41B8F1000F03DA00200146BDE8F08D44
:1032D00000204FF48011064684460EE0171B73EB66
:1032E000050705D3121B63EB050306434CEA010CEB
:1032F00049084FEA300092185B4150EA0107EDD1CE
:1033000052EA030012D082EA040083EA050108436E
:1033100005D0101BAB4106D20122002306E000229B
:103320004FF0004302E06FF0010253101AEB060069
:103330004CEB085110EB0A0041EB0B01BDE8F04DDE
:1033400000F061B9C10F80EAE0700844CA07962313
:10335000002100F02AB996230022114600F025B979
:103360000EB5C10F80EAE0700844CA07002140F2A0
:1033700033438DE80E000A460B4600F053F903B0C4
:1033800000BD70B5C1F30A5201F000450024C1F33D
:10339000130140F2FF3341F480119A4201DA002018
:1033A00070BD40F233439A42A2F2334203DC5242F0
:1033B00000F0D0F800E090402C43F1D0404270BDC6
:1033C00000F0004230F000400AD0C10D01F56071FC
:1033D000C0F3160042EA0151C2084007114370478A
:1033E000002001467047000030B5041E71F1000452
:1033F00004DB4FF00044404264EB0101141E73F102
:10340000000405DB1C464FF00043524263EB04030B
:103410008B4208BF824230BD30B5041E71F10004FA
:1034200004DB4FF00044404264EB0101141E73F1D1
:10343000000405DB1C464FF00043524263EB0403DB
:10344000994208BF904230BD01F0004330B421F0F2
:10345000004150EA010206D00A0DA2F56072C1F3E4
:103460001301002A02DC30BC00207047440F44EAFC
:10347000C104C100E01830BC00EBC25000F08CB8B1
:10348000002801DBC0F10040002901DBC1F100414F
:1034900081427047002801DBC0F10040002901DBB8
:1034A000C1F100418842704730B50B46014600200B
:1034B0002022012409E021FA02F59D4205D303FAF6
:1034C00002F5491B04FA02F52844151EA2F1010277
:1034D000F1DC30BD2DE9F05F0546002092469B46A9
:1034E00088460646814640241BE02846414647461A
:1034F000224600F02FF853465A46C01A914110D385
:1035000011461846224600F016F82D1A67EB0108FE
:103510004F4622460120002100F00DF817EB00096C
:103520004E41201EA4F10104DFDC484631462A4604
:103530004346BDE8F09F202A04DB203A00FA02F15E
:10354000002070479140C2F1200320FA03F3194391
:1035500090407047202A04DB203A21FA02F0002133
:10356000704721FA02F3D040C2F120029140084393
:1035700019467047202A06DBCB17203A41FA02F0A1
:1035800043EAE07306E041FA02F3D040C2F12002C0
:1035900091400843194670470029A8BF7047401C56
:1035A000490008BF20F00100704710B4B0FA80FC59
:1035B00000FA0CF050EA010404BF10BC704749B196
:1035C000CCF1200421FA04F411FA0CF118BF012106
:1035D00021430843A3EB0C01CB1D4FEA00614FEAE6
:1035E000102042BF002010BC704700EBC3501044B5
:1035F0000029A4BF10BC7047401C490008BF20F040
:10360000010010BC704710B5141E73F1000408DAF5
:10361000401C41F1000192185B411A4301D120F096
:10362000010010BD2DE9F04D92469B4611B1B1FA53
:1036300081F202E0B0FA80F220329046FFF77BFF81
:1036400004460F4640EA0A0041EA0B0153465A4637
:10365000084313D0114653EA010019D0C8F14002C3
:103660005046FFF777FF05460E46504659464246FC
:10367000FFF761FF084305D0012004E020463946EA
:10368000BDE8F08D0020054346EAE0762C43374341
:103690000A986305E40AA0EB08000022FD0A44EA48
:1036A00047540A3002D500200146E9E70105101908
:1036B0006941DDE9084500196941BDE8F04DA2E71F
:1036C000C1F30A52C1F3130140F2FF3341F48011F8
:1036D0009A4202DA00200146704740F233439A4290
:1036E000A2F2334202DC5242FFF734BFFFF723BF9E
:1036F000064C074D06E0E06840F0010394E807003F
:1037000098471034AC42F6D3FCF716FD3840000859
:10371000584000080FB4054B10B503A9044A02989D
:1037200000F0EEF810BC5DF814FB0000D3180008A0
:103730003C0000200FB4084B10B504A902AA03985E
:1037400000F0DEF8044602A9002000F070FC2046DC
:1037500010BC5DF814FB00002F40000802E008C810
:10376000121F08C1002AFAD170477047002001E0FB
:1037700001C1121F002AFBD1704700002DE9FF5F35
:1037800082B00021DDE90430020DDDF840B00343D2
:1037900018D044F61050A2F2FF324243151411988B
:1037A00001281FD0A5EB0B00401C5FEA000A4FF078
:1037B00000064E4FDFF83891B046504615D5CAF195
:1037C000000413E0119801244AA3012801D16FEAF3
:1037D0000B010298119AC0E90031C0E9024206B01B
:1037E000BDE8F09FCBF10000DFE704460021404A2E
:1037F000491842EB0450CDE9001012E0E00707D071
:1038000032463B4640464946FFF7BBFC8046894668
:1038100032463B4610461946FFF7B3FC06460F46B4
:103820006410002CEAD1DDE90401DDE90023BAF1DE
:10383000000F06DAFFF7A5FC42464B46FFF7A1FC56
:1038400005E0FFF710FD42464B46FFF70CFD04462E
:103850000E460022284BFFF7DFFD03D84FF0FF3064
:10386000014607E00022254B20463146FFF7E2FBE8
:10387000FFF726FF102409E0002C0ADB0A220023B0
:10388000FFF728FE039B30321A55641E50EA0102EE
:10389000F2D1641C039AC4F111031444119A012A51
:1038A00003D0012208430DD10AE0084304D00020D0
:1038B0004FF0110B119072E7A3EB0B056D1E0DE09D
:1038C0005B4504DD4FF0000205F1010504E003DA79
:1038D0004FF00002A5F10105002AECD002981199E1
:1038E000C0E90231C0E9004579E70000000014405A
:1038F0000000F03F300000000000F0430000E03F17
:103900002DE9FF4F95B09B468946064600250FE2FC
:10391000252877D100242746F84A0121059400E0A4
:10392000044316F8013F203B01FA03F01042F7D19F
:1039300030782A2811D06FF02F033078A0F13002B0
:10394000092A16D8059A44F0020402EB820203EB1E
:1039500042021044761C0590EFE759F8042B0592BB
:10396000002A03DA504244F40054059044F0020463
:10397000761C30782E2816D116F8010F44F0040476
:103980002A280DD06FF02F023078A0F13003092BD8
:1039900009D807EB870302EB4303C718761CF3E74C
:1039A00059F8047B761C30786C280FD006DC4C2844
:1039B00017D068280DD06A2814D104E0742810D0DC
:1039C0007A280FD10DE044F400140AE044F4801486
:1039D00001E044F440147278824202D104F580146C
:1039E000761C761C307866280BD013DC582877D0EC
:1039F00009DC002875D04528F6D04628F4D04728A1
:103A00001AD19DE118E0632835D0642879D0652863
:103A100012D195E1702873D008DC6728F1D06928AD
:103A20006FD06E280DD06F2806D1B5E073282CD04A
:103A3000752875D0782874D05A46179990476D1C10
:103A400075E1C4F30250022809D003280DD0D9F83B
:103A5000001004280DD00D6009F1040967E1D9F8C0
:103A60000010EA17C1E90052F6E7D9F800100D80FE
:103A7000F2E70D70F0E719F8041B8DF80010002034
:103A80008DF80100EA46012003E059F804AB4FF03D
:103A9000FF3061074FF0000102D40DE008F1010191
:103AA0008846B9420FDA8045F8DB1AF80810002979
:103AB000F4D108E008F1010188468142FADB1AF8E6
:103AC00008100029F6D105985B46A0EB08072146AF
:103AD0003846179A00F094FA284400EB080507E0EE
:103AE0004DE029E10DE01AF8010B5A46179990476D
:103AF000B8F10108F7D25B4621463846179A13E120
:103B000042E00A220092C4F302524FF0000A022A55
:103B100008D059F804CB032A4FEAEC710AD00DE023
:103B200029E02AE009F1070121F00702F2E802C1C9
:103B3000914609E00FFA8CFC4FEAEC71042A03D19C
:103B40004FFA8CFC4FEAEC71002907DA0A46002193
:103B5000DCF1000C61EB02012D2202E0220504D50C
:103B60002B228DF80420012203E0E20701D020225D
:103B7000F7E7904659E00A2102E010220DE01021FB
:103B80004FF0000A00910BE010224FF0000A44F0C1
:103B900004040827009203E008224FF0000A009274
:103BA000C4F30252022A05D059F804CB0021032A9B
:103BB00008D009E009F1070121F00702F2E802C18B
:103BC000914605E01FFA8CFC042A01D10CF0FF0C91
:103BD0004FF00008220728D5702806D0009B83F0FC
:103BE000100353EA0A0305D00EE040228DF80420AA
:103BF000012208E05CEA010206D030228DF80420A0
:103C00008DF8050002229046009B83F0080353EADA
:103C10000A030AD15CEA010201D1620705D530220C
:103C20008DF804204FF001087F1E582804D034A0DE
:103C300003900EA802900DE036A0F9E753466046C7
:103C4000009AFFF747FC84460398825C0298401E66
:103C5000029002705CEA0100F0D1029806A9081AED
:103C600000F1200A600702D524F4803400E0012727
:103C7000574502DDA7EB0A0000E0002000EB0A0137
:103C8000009005984144401A0590E00306D45B4635
:103C90002146179A059800F0B3F90544002706E07D
:103CA00001A85A46C05D179990476D1C7F1C474577
:103CB000F6DBE0030CD55B462146179A059800F029
:103CC0009FF9054404E030205A46179990476D1C2F
:103CD0000099481E00900029F5DC08E0029802993E
:103CE0005A460078491C0291179990476D1CBAF109
:103CF0000001AAF1010AF1DC65E1000009280100D8
:103D00003031323334353637383961626364656651
:103D10000000000030313233343536373839414213
:103D2000434445460000000000F058F90544761C65
:103D3000307800287FF4ECAD19B02846BDE8F08F4C
:103D4000620700D4062709F1070222F0070CFCE8FD
:103D50000223E14603F000485FEA080C02D00FF2AC
:103D6000702C0DE05FEA045C02D50FF2682C07E0CE
:103D70005FEAC47C02D00FF2602C01E0AFF2700C5D
:103D80004FF0FF3823F00043CDF850C065280CD029
:103D900006DC452809D046281DD047283DD13DE006
:103DA000662818D067287ED138E00021112F01DB6A
:103DB000112000E0781CCDE9000106A90EA8FFF74C
:103DC000DDFCDDE90F010E9A03910021009207F15D
:103DD000010A04914DE04FF000400097CDE9011039
:103DE00006A90EA8FFF7CAFCDDE90F0203920E9B9D
:103DF00011990022DDF80CA00093049211B9791CEE
:103E000000EB010AB7EB0A0004D4C0F1FF3007F160
:103E1000010A0490AAEB0700019044E0012F00DAA8
:103E200001270021112F01DD112000E03846CDE9E6
:103E3000000106A90EA8FFF7A1FCDDE90F010E9A0B
:103E40000391002104910092BA4621070CD40399F2
:103E5000514500DA8A46BAF1010F05DD009AAAF150
:103E60000101515C302908D0B84202DA10F1040F88
:103E700006DA0121CDE9011015E0AAF10101E9E717
:103E8000002805DC049901440491AAEB000102E03A
:103E9000411C514500DD8A460499401A401C01909E
:103EA0004FF000400290200704D40198504501DBF8
:103EB000CDF8048000208DF84F0002980DF14F07D7
:103EC000B0F1004F25D02B200E9002984FF0020841
:103ED00000280CDA404202902D200E9007E00A21C3
:103EE0000298FFF7E1FA3031029007F8011DB8F1AE
:103EF0000001A8F10108F2DC02980028EFD1791E38
:103F00000E980870307800F0200040F0450007F867
:103F1000020D12A8C01B00F107081498007800B128
:103F2000012000EB0A01019801EBE0710598414482
:103F3000401A401E0590E00306D45B462146179ABE
:103F4000059800F05DF805441498007818B15A46B9
:103F5000179990476D1CE00324D55B462146179ABC
:103F6000059800F04DF805441CE00498002807DB94
:103F7000DDE90301884203DD0098405C179901E008
:103F8000179930205A469047049805F10105401CC6
:103F900004900198401E019004D12E205A46179992
:103FA00090476D1CBAF10001AAF1010ADDDC05E0C1
:103FB00017F8010B5A46179990476D1CB8F100018C
:103FC000A8F10108F4DC5B462146179A0598ABE698
:103FD0002D0000002B000000200000002DE9F04122
:103FE000044600251E461746880404D405E03946D9
:103FF0002020B0476D1C641EF9D52846BDE8F0812D
:104000002DE9F041044600251E469046C80301D51F
:10401000302700E02027880404D505E041463846D3
:10402000B0476D1C641EF9D52846BDE8F0810A68CA
:10403000531C0B60107070475840000800000020AF
:10404000400000005C370008984000084000002055
:10405000080800006C37000800A24A0400000000B5
:104060000000000001020304060708090000000028
:1040700001020304010203040607080902040608FA
:104080000000000000000000000000000000000030
:08409000000000000000000028
:0400000508000131BD
:00000001FF
